{
  "_format": "hh-sol-artifact-1",
  "contractName": "MultiSwap",
  "sourceName": "contracts/Swap.sol",
  "abi": [
    {
      "inputs": [
        {
          "internalType": "contract ISwapRouter",
          "name": "_swapRouter",
          "type": "address"
        }
      ],
      "stateMutability": "nonpayable",
      "type": "constructor"
    },
    {
      "inputs": [
        {
          "internalType": "address[]",
          "name": "tokensIn",
          "type": "address[]"
        },
        {
          "internalType": "uint256[]",
          "name": "amountsIn",
          "type": "uint256[]"
        },
        {
          "internalType": "address",
          "name": "tokenOut",
          "type": "address"
        }
      ],
      "name": "multiSwapExactInputSingle",
      "outputs": [],
      "stateMutability": "nonpayable",
      "type": "function"
    },
    {
      "inputs": [],
      "name": "swapRouter",
      "outputs": [
        {
          "internalType": "contract ISwapRouter",
          "name": "",
          "type": "address"
        }
      ],
      "stateMutability": "view",
      "type": "function"
    }
  ],
  "bytecode": "0x60a060405234801561001057600080fd5b50604051610f62380380610f6283398181016040528101906100329190610084565b8073ffffffffffffffffffffffffffffffffffffffff1660808173ffffffffffffffffffffffffffffffffffffffff1660601b8152505050610108565b60008151905061007e816100f1565b92915050565b60006020828403121561009657600080fd5b60006100a48482850161006f565b91505092915050565b60006100b8826100d1565b9050919050565b60006100ca826100ad565b9050919050565b600073ffffffffffffffffffffffffffffffffffffffff82169050919050565b6100fa816100bf565b811461010557600080fd5b50565b60805160601c610e3361012f60003980610115528061021652806102e95250610e336000f3fe608060405234801561001057600080fd5b50600436106100365760003560e01c8063a477c3631461003b578063c31c9c0714610057575b600080fd5b61005560048036038101906100509190610a98565b610075565b005b61005f6102e7565b60405161006c9190610c6d565b60405180910390f35b81518351146100b9576040517f08c379a00000000000000000000000000000000000000000000000000000000081526004016100b090610c88565b60405180910390fd5b600080600090505b84518110156102d5576100fc8582815181106100d957fe5b602002602001015133308785815181106100ef57fe5b602002602001015161030b565b61014d85828151811061010b57fe5b60200260200101517f000000000000000000000000000000000000000000000000000000000000000086848151811061014057fe5b602002602001015161052b565b600060405180610100016040528087848151811061016757fe5b602002602001015173ffffffffffffffffffffffffffffffffffffffff1681526020018573ffffffffffffffffffffffffffffffffffffffff168152602001610bb862ffffff1681526020013373ffffffffffffffffffffffffffffffffffffffff1681526020014281526020018684815181106101e157fe5b6020026020010151815260200160008152602001600073ffffffffffffffffffffffffffffffffffffffff16815250905060007f000000000000000000000000000000000000000000000000000000000000000073ffffffffffffffffffffffffffffffffffffffff1663414bf389836040518263ffffffff1660e01b815260040161026d9190610ca8565b602060405180830381600087803b15801561028757600080fd5b505af115801561029b573d6000803e3d6000fd5b505050506040513d601f19601f820116820180604052508101906102bf9190610b17565b90508084019350505080806001019150506100c1565b506102e182338361072c565b50505050565b7f000000000000000000000000000000000000000000000000000000000000000081565b6000808573ffffffffffffffffffffffffffffffffffffffff166323b872dd60e01b868686604051602401808473ffffffffffffffffffffffffffffffffffffffff1681526020018373ffffffffffffffffffffffffffffffffffffffff1681526020018281526020019350505050604051602081830303815290604052907bffffffffffffffffffffffffffffffffffffffffffffffffffffffff19166020820180517bffffffffffffffffffffffffffffffffffffffffffffffffffffffff83818316178352505050506040518082805190602001908083835b6020831061040a57805182526020820191506020810190506020830392506103e7565b6001836020036101000a0380198251168184511680821785525050505050509050019150506000604051808303816000865af19150503d806000811461046c576040519150601f19603f3d011682016040523d82523d6000602084013e610471565b606091505b50915091508180156104b157506000815114806104b0575080806020019051602081101561049e57600080fd5b81019080805190602001909291905050505b5b610523576040517f08c379a00000000000000000000000000000000000000000000000000000000081526004018080602001828103825260038152602001807f535446000000000000000000000000000000000000000000000000000000000081525060200191505060405180910390fd5b505050505050565b6000808473ffffffffffffffffffffffffffffffffffffffff1663095ea7b360e01b8585604051602401808373ffffffffffffffffffffffffffffffffffffffff16815260200182815260200192505050604051602081830303815290604052907bffffffffffffffffffffffffffffffffffffffffffffffffffffffff19166020820180517bffffffffffffffffffffffffffffffffffffffffffffffffffffffff83818316178352505050506040518082805190602001908083835b6020831061060c57805182526020820191506020810190506020830392506105e9565b6001836020036101000a0380198251168184511680821785525050505050509050019150506000604051808303816000865af19150503d806000811461066e576040519150601f19603f3d011682016040523d82523d6000602084013e610673565b606091505b50915091508180156106b357506000815114806106b257508080602001905160208110156106a057600080fd5b81019080805190602001909291905050505b5b610725576040517f08c379a00000000000000000000000000000000000000000000000000000000081526004018080602001828103825260028152602001807f534100000000000000000000000000000000000000000000000000000000000081525060200191505060405180910390fd5b5050505050565b6000808473ffffffffffffffffffffffffffffffffffffffff1663a9059cbb60e01b8585604051602401808373ffffffffffffffffffffffffffffffffffffffff16815260200182815260200192505050604051602081830303815290604052907bffffffffffffffffffffffffffffffffffffffffffffffffffffffff19166020820180517bffffffffffffffffffffffffffffffffffffffffffffffffffffffff83818316178352505050506040518082805190602001908083835b6020831061080d57805182526020820191506020810190506020830392506107ea565b6001836020036101000a0380198251168184511680821785525050505050509050019150506000604051808303816000865af19150503d806000811461086f576040519150601f19603f3d011682016040523d82523d6000602084013e610874565b606091505b50915091508180156108b457506000815114806108b357508080602001905160208110156108a157600080fd5b81019080805190602001909291905050505b5b610926576040517f08c379a00000000000000000000000000000000000000000000000000000000081526004018080602001828103825260028152602001807f535400000000000000000000000000000000000000000000000000000000000081525060200191505060405180910390fd5b5050505050565b600061094061093b84610cf5565b610cc4565b9050808382526020820190508285602086028201111561095f57600080fd5b60005b8581101561098f57816109758882610a05565b845260208401935060208301925050600181019050610962565b5050509392505050565b60006109ac6109a784610d21565b610cc4565b905080838252602082019050828560208602820111156109cb57600080fd5b60005b858110156109fb57816109e18882610a6e565b8452602084019350602083019250506001810190506109ce565b5050509392505050565b600081359050610a1481610dcf565b92915050565b600082601f830112610a2b57600080fd5b8135610a3b84826020860161092d565b91505092915050565b600082601f830112610a5557600080fd5b8135610a65848260208601610999565b91505092915050565b600081359050610a7d81610de6565b92915050565b600081519050610a9281610de6565b92915050565b600080600060608486031215610aad57600080fd5b600084013567ffffffffffffffff811115610ac757600080fd5b610ad386828701610a1a565b935050602084013567ffffffffffffffff811115610af057600080fd5b610afc86828701610a44565b9250506040610b0d86828701610a05565b9150509250925092565b600060208284031215610b2957600080fd5b6000610b3784828501610a83565b91505092915050565b610b4981610d5e565b82525050565b610b5881610da9565b82525050565b6000610b6b601a83610d4d565b91507f4172726179206c656e6774687320646f206e6f74206d617463680000000000006000830152602082019050919050565b61010082016000820151610bb56000850182610b40565b506020820151610bc86020850182610b40565b506040820151610bdb6040850182610c4f565b506060820151610bee6060850182610b40565b506080820151610c016080850182610c5e565b5060a0820151610c1460a0850182610c5e565b5060c0820151610c2760c0850182610c5e565b5060e0820151610c3a60e0850182610c40565b50505050565b610c4981610d70565b82525050565b610c5881610d90565b82525050565b610c6781610d9f565b82525050565b6000602082019050610c826000830184610b4f565b92915050565b60006020820190508181036000830152610ca181610b5e565b9050919050565b600061010082019050610cbe6000830184610b9e565b92915050565b6000604051905081810181811067ffffffffffffffff82111715610ceb57610cea610dcd565b5b8060405250919050565b600067ffffffffffffffff821115610d1057610d0f610dcd565b5b602082029050602081019050919050565b600067ffffffffffffffff821115610d3c57610d3b610dcd565b5b602082029050602081019050919050565b600082825260208201905092915050565b6000610d6982610d70565b9050919050565b600073ffffffffffffffffffffffffffffffffffffffff82169050919050565b600062ffffff82169050919050565b6000819050919050565b6000610db482610dbb565b9050919050565b6000610dc682610d70565b9050919050565bfe5b610dd881610d5e565b8114610de357600080fd5b50565b610def81610d9f565b8114610dfa57600080fd5b5056fea2646970667358221220ac45d7d741e741f82ca14b401b35c87c7a8b2cf016694908c19b5753e605085a64736f6c63430007060033",
  "linkReferences": {},
  "deployedLinkReferences": {}
}