{
  "_format": "hh-sol-artifact-1",
  "contractName": "MultiSwap",
  "sourceName": "contracts/Swap.sol",
  "abi": [
    {
      "inputs": [
        {
          "internalType": "contract ISwapRouter",
          "name": "_swapRouter",
          "type": "address"
        },
        {
          "internalType": "contract IUniswapV3Factory",
          "name": "_factory",
          "type": "address"
        }
      ],
      "stateMutability": "nonpayable",
      "type": "constructor"
    },
    {
      "anonymous": false,
      "inputs": [
        {
          "indexed": true,
          "internalType": "address",
          "name": "pool",
          "type": "address"
        },
        {
          "indexed": false,
          "internalType": "address",
          "name": "token0",
          "type": "address"
        },
        {
          "indexed": false,
          "internalType": "address",
          "name": "token1",
          "type": "address"
        },
        {
          "indexed": false,
          "internalType": "uint24",
          "name": "fee",
          "type": "uint24"
        }
      ],
      "name": "PoolCreated",
      "type": "event"
    },
    {
      "inputs": [
        {
          "internalType": "address",
          "name": "token0",
          "type": "address"
        },
        {
          "internalType": "address",
          "name": "token1",
          "type": "address"
        },
        {
          "internalType": "uint24",
          "name": "fee",
          "type": "uint24"
        }
      ],
      "name": "createPool",
      "outputs": [
        {
          "internalType": "address",
          "name": "pool",
          "type": "address"
        }
      ],
      "stateMutability": "nonpayable",
      "type": "function"
    },
    {
      "inputs": [],
      "name": "factory",
      "outputs": [
        {
          "internalType": "contract IUniswapV3Factory",
          "name": "",
          "type": "address"
        }
      ],
      "stateMutability": "view",
      "type": "function"
    },
    {
      "inputs": [],
      "name": "swapRouter",
      "outputs": [
        {
          "internalType": "contract ISwapRouter",
          "name": "",
          "type": "address"
        }
      ],
      "stateMutability": "view",
      "type": "function"
    },
    {
      "inputs": [
        {
          "internalType": "address[]",
          "name": "tokenAddresses",
          "type": "address[]"
        },
        {
          "internalType": "uint256[]",
          "name": "amounts",
          "type": "uint256[]"
        },
        {
          "internalType": "address",
          "name": "outputToken",
          "type": "address"
        },
        {
          "internalType": "uint256",
          "name": "minOutputAmount",
          "type": "uint256"
        },
        {
          "internalType": "address",
          "name": "recipient",
          "type": "address"
        }
      ],
      "name": "swapTokensForSingleToken",
      "outputs": [],
      "stateMutability": "nonpayable",
      "type": "function"
    }
  ],
  "bytecode": "0x60c06040523480156200001157600080fd5b506040516200151a3803806200151a83398181016040528101906200003791906200016a565b8173ffffffffffffffffffffffffffffffffffffffff1660808173ffffffffffffffffffffffffffffffffffffffff16815250508073ffffffffffffffffffffffffffffffffffffffff1660a08173ffffffffffffffffffffffffffffffffffffffff16815250505050620001b1565b600080fd5b600073ffffffffffffffffffffffffffffffffffffffff82169050919050565b6000620000d982620000ac565b9050919050565b6000620000ed82620000cc565b9050919050565b620000ff81620000e0565b81146200010b57600080fd5b50565b6000815190506200011f81620000f4565b92915050565b60006200013282620000cc565b9050919050565b620001448162000125565b81146200015057600080fd5b50565b600081519050620001648162000139565b92915050565b60008060408385031215620001845762000183620000a7565b5b600062000194858286016200010e565b9250506020620001a78582860162000153565b9150509250929050565b60805160a05161132e620001ec600039600081816102a101526103c001526000818161039c015281816103f401526104c6015261132e6000f3fe608060405234801561001057600080fd5b506004361061004c5760003560e01c80631439a51214610051578063a16712951461006d578063c31c9c071461009d578063c45a0155146100bb575b600080fd5b61006b60048036038101906100669190610ac2565b6100d9565b005b61008760048036038101906100829190610bb9565b61025e565b6040516100949190610c1b565b60405180910390f35b6100a561039a565b6040516100b29190610c95565b60405180910390f35b6100c36103be565b6040516100d09190610cd1565b60405180910390f35b848490508787905014610121576040517f08c379a000000000000000000000000000000000000000000000000000000000815260040161011890610d49565b60405180910390fd5b60005b878790508110156101875761017a88888381811061014557610144610d69565b5b905060200201602081019061015a9190610d98565b87878481811061016d5761016c610d69565b5b90506020020135866103e2565b8080600101915050610124565b5060008373ffffffffffffffffffffffffffffffffffffffff166370a08231306040518263ffffffff1660e01b81526004016101c39190610c1b565b602060405180830381865afa1580156101e0573d6000803e3d6000fd5b505050506040513d601f19601f820116820180604052508101906102049190610dda565b905082811015610249576040517f08c379a000000000000000000000000000000000000000000000000000000000815260040161024090610e53565b60405180910390fd5b610254848383610567565b5050505050505050565b60008273ffffffffffffffffffffffffffffffffffffffff168473ffffffffffffffffffffffffffffffffffffffff16111561029f57828480945081955050505b7f000000000000000000000000000000000000000000000000000000000000000073ffffffffffffffffffffffffffffffffffffffff1663a16712958585856040518463ffffffff1660e01b81526004016102fc93929190610e82565b6020604051808303816000875af115801561031b573d6000803e3d6000fd5b505050506040513d601f19601f8201168201806040525081019061033f9190610ece565b90508073ffffffffffffffffffffffffffffffffffffffff167f4204e7aa64f9db6fe47ab01343f63e57d93a362a091a0e61c35d3c5f5158bd1b85858560405161038b93929190610e82565b60405180910390a29392505050565b7f000000000000000000000000000000000000000000000000000000000000000081565b7f000000000000000000000000000000000000000000000000000000000000000081565b6103ee833330856106bc565b610419837f000000000000000000000000000000000000000000000000000000000000000084610814565b60006040518061010001604052808573ffffffffffffffffffffffffffffffffffffffff1681526020018373ffffffffffffffffffffffffffffffffffffffff168152602001610bb862ffffff1681526020013073ffffffffffffffffffffffffffffffffffffffff168152602001600f426104959190610f2a565b815260200184815260200160008152602001600073ffffffffffffffffffffffffffffffffffffffff1681525090507f000000000000000000000000000000000000000000000000000000000000000073ffffffffffffffffffffffffffffffffffffffff1663414bf389826040518263ffffffff1660e01b815260040161051d919061103c565b6020604051808303816000875af115801561053c573d6000803e3d6000fd5b505050506040513d601f19601f820116820180604052508101906105609190610dda565b5050505050565b6000808473ffffffffffffffffffffffffffffffffffffffff1663a9059cbb60e01b858560405160240161059c929190611067565b604051602081830303815290604052907bffffffffffffffffffffffffffffffffffffffffffffffffffffffff19166020820180517bffffffffffffffffffffffffffffffffffffffffffffffffffffffff83818316178352505050506040516106069190611101565b6000604051808303816000865af19150503d8060008114610643576040519150601f19603f3d011682016040523d82523d6000602084013e610648565b606091505b509150915081801561067657506000815114806106755750808060200190518101906106749190611150565b5b5b6106b5576040517f08c379a00000000000000000000000000000000000000000000000000000000081526004016106ac906111c9565b60405180910390fd5b5050505050565b6000808573ffffffffffffffffffffffffffffffffffffffff166323b872dd60e01b8686866040516024016106f3939291906111e9565b604051602081830303815290604052907bffffffffffffffffffffffffffffffffffffffffffffffffffffffff19166020820180517bffffffffffffffffffffffffffffffffffffffffffffffffffffffff838183161783525050505060405161075d9190611101565b6000604051808303816000865af19150503d806000811461079a576040519150601f19603f3d011682016040523d82523d6000602084013e61079f565b606091505b50915091508180156107cd57506000815114806107cc5750808060200190518101906107cb9190611150565b5b5b61080c576040517f08c379a00000000000000000000000000000000000000000000000000000000081526004016108039061126c565b60405180910390fd5b505050505050565b6000808473ffffffffffffffffffffffffffffffffffffffff1663095ea7b360e01b8585604051602401610849929190611067565b604051602081830303815290604052907bffffffffffffffffffffffffffffffffffffffffffffffffffffffff19166020820180517bffffffffffffffffffffffffffffffffffffffffffffffffffffffff83818316178352505050506040516108b39190611101565b6000604051808303816000865af19150503d80600081146108f0576040519150601f19603f3d011682016040523d82523d6000602084013e6108f5565b606091505b509150915081801561092357506000815114806109225750808060200190518101906109219190611150565b5b5b610962576040517f08c379a0000000000000000000000000000000000000000000000000000000008152600401610959906112d8565b60405180910390fd5b5050505050565b600080fd5b600080fd5b600080fd5b600080fd5b600080fd5b60008083601f84011261099857610997610973565b5b8235905067ffffffffffffffff8111156109b5576109b4610978565b5b6020830191508360208202830111156109d1576109d061097d565b5b9250929050565b60008083601f8401126109ee576109ed610973565b5b8235905067ffffffffffffffff811115610a0b57610a0a610978565b5b602083019150836020820283011115610a2757610a2661097d565b5b9250929050565b600073ffffffffffffffffffffffffffffffffffffffff82169050919050565b6000610a5982610a2e565b9050919050565b610a6981610a4e565b8114610a7457600080fd5b50565b600081359050610a8681610a60565b92915050565b6000819050919050565b610a9f81610a8c565b8114610aaa57600080fd5b50565b600081359050610abc81610a96565b92915050565b600080600080600080600060a0888a031215610ae157610ae0610969565b5b600088013567ffffffffffffffff811115610aff57610afe61096e565b5b610b0b8a828b01610982565b9750975050602088013567ffffffffffffffff811115610b2e57610b2d61096e565b5b610b3a8a828b016109d8565b95509550506040610b4d8a828b01610a77565b9350506060610b5e8a828b01610aad565b9250506080610b6f8a828b01610a77565b91505092959891949750929550565b600062ffffff82169050919050565b610b9681610b7e565b8114610ba157600080fd5b50565b600081359050610bb381610b8d565b92915050565b600080600060608486031215610bd257610bd1610969565b5b6000610be086828701610a77565b9350506020610bf186828701610a77565b9250506040610c0286828701610ba4565b9150509250925092565b610c1581610a4e565b82525050565b6000602082019050610c306000830184610c0c565b92915050565b6000819050919050565b6000610c5b610c56610c5184610a2e565b610c36565b610a2e565b9050919050565b6000610c6d82610c40565b9050919050565b6000610c7f82610c62565b9050919050565b610c8f81610c74565b82525050565b6000602082019050610caa6000830184610c86565b92915050565b6000610cbb82610c62565b9050919050565b610ccb81610cb0565b82525050565b6000602082019050610ce66000830184610cc2565b92915050565b600082825260208201905092915050565b7f4172726179206c656e6774687320646f206e6f74206d61746368000000000000600082015250565b6000610d33601a83610cec565b9150610d3e82610cfd565b602082019050919050565b60006020820190508181036000830152610d6281610d26565b9050919050565b7f4e487b7100000000000000000000000000000000000000000000000000000000600052603260045260246000fd5b600060208284031215610dae57610dad610969565b5b6000610dbc84828501610a77565b91505092915050565b600081519050610dd481610a96565b92915050565b600060208284031215610df057610def610969565b5b6000610dfe84828501610dc5565b91505092915050565b7f496e73756666696369656e74206f757470757420616d6f756e74000000000000600082015250565b6000610e3d601a83610cec565b9150610e4882610e07565b602082019050919050565b60006020820190508181036000830152610e6c81610e30565b9050919050565b610e7c81610b7e565b82525050565b6000606082019050610e976000830186610c0c565b610ea46020830185610c0c565b610eb16040830184610e73565b949350505050565b600081519050610ec881610a60565b92915050565b600060208284031215610ee457610ee3610969565b5b6000610ef284828501610eb9565b91505092915050565b7f4e487b7100000000000000000000000000000000000000000000000000000000600052601160045260246000fd5b6000610f3582610a8c565b9150610f4083610a8c565b9250828201905080821115610f5857610f57610efb565b5b92915050565b610f6781610a4e565b82525050565b610f7681610b7e565b82525050565b610f8581610a8c565b82525050565b610f9481610a2e565b82525050565b61010082016000820151610fb16000850182610f5e565b506020820151610fc46020850182610f5e565b506040820151610fd76040850182610f6d565b506060820151610fea6060850182610f5e565b506080820151610ffd6080850182610f7c565b5060a082015161101060a0850182610f7c565b5060c082015161102360c0850182610f7c565b5060e082015161103660e0850182610f8b565b50505050565b6000610100820190506110526000830184610f9a565b92915050565b61106181610a8c565b82525050565b600060408201905061107c6000830185610c0c565b6110896020830184611058565b9392505050565b600081519050919050565b600081905092915050565b60005b838110156110c45780820151818401526020810190506110a9565b60008484015250505050565b60006110db82611090565b6110e5818561109b565b93506110f58185602086016110a6565b80840191505092915050565b600061110d82846110d0565b915081905092915050565b60008115159050919050565b61112d81611118565b811461113857600080fd5b50565b60008151905061114a81611124565b92915050565b60006020828403121561116657611165610969565b5b60006111748482850161113b565b91505092915050565b7f5354000000000000000000000000000000000000000000000000000000000000600082015250565b60006111b3600283610cec565b91506111be8261117d565b602082019050919050565b600060208201905081810360008301526111e2816111a6565b9050919050565b60006060820190506111fe6000830186610c0c565b61120b6020830185610c0c565b6112186040830184611058565b949350505050565b7f5354460000000000000000000000000000000000000000000000000000000000600082015250565b6000611256600383610cec565b915061126182611220565b602082019050919050565b6000602082019050818103600083015261128581611249565b9050919050565b7f5341000000000000000000000000000000000000000000000000000000000000600082015250565b60006112c2600283610cec565b91506112cd8261128c565b602082019050919050565b600060208201905081810360008301526112f1816112b5565b905091905056fea264697066735822122086ba8a125b9c685982dddf38ee7a156b117dd47a37a0ec67402a29173cd9576064736f6c63430008180033",
  "linkReferences": {},
  "deployedLinkReferences": {}
}