{
  "_format": "hh-sol-artifact-1",
  "contractName": "MultiSwap",
  "sourceName": "contracts/Swap.sol",
  "abi": [
    {
      "inputs": [
        {
          "internalType": "contract ISwapRouter",
          "name": "_swapRouter",
          "type": "address"
        }
      ],
      "stateMutability": "nonpayable",
      "type": "constructor"
    },
    {
      "anonymous": false,
      "inputs": [
        {
          "indexed": false,
          "internalType": "uint256",
          "name": "value",
          "type": "uint256"
        }
      ],
      "name": "amount",
      "type": "event"
    },
    {
      "inputs": [
        {
          "internalType": "address",
          "name": "token",
          "type": "address"
        }
      ],
      "name": "balance_of",
      "outputs": [
        {
          "internalType": "uint256",
          "name": "",
          "type": "uint256"
        }
      ],
      "stateMutability": "view",
      "type": "function"
    },
    {
      "inputs": [
        {
          "internalType": "address[]",
          "name": "tokensIn",
          "type": "address[]"
        },
        {
          "internalType": "uint256[]",
          "name": "amountsIn",
          "type": "uint256[]"
        },
        {
          "internalType": "address",
          "name": "tokenOut",
          "type": "address"
        }
      ],
      "name": "multiSwapExactInputSingle",
      "outputs": [],
      "stateMutability": "nonpayable",
      "type": "function"
    },
    {
      "inputs": [],
      "name": "swapRouter",
      "outputs": [
        {
          "internalType": "contract ISwapRouter",
          "name": "",
          "type": "address"
        }
      ],
      "stateMutability": "view",
      "type": "function"
    }
  ],
  "bytecode": "0x60a060405234801561001057600080fd5b50604051610cbb380380610cbb83398181016040528101906100329190610084565b8073ffffffffffffffffffffffffffffffffffffffff1660808173ffffffffffffffffffffffffffffffffffffffff1660601b8152505050610108565b60008151905061007e816100f1565b92915050565b60006020828403121561009657600080fd5b60006100a48482850161006f565b91505092915050565b60006100b8826100d1565b9050919050565b60006100ca826100ad565b9050919050565b600073ffffffffffffffffffffffffffffffffffffffff82169050919050565b6100fa816100bf565b811461010557600080fd5b50565b60805160601c610b8c61012f600039806101de528061034a52806104e15250610b8c6000f3fe608060405234801561001057600080fd5b50600436106100415760003560e01c8063a477c36314610046578063b144adfb14610062578063c31c9c0714610092575b600080fd5b610060600480360381019061005b91906106ac565b6100b0565b005b61007c60048036038101906100779190610683565b610448565b60405161008991906109a9565b60405180910390f35b61009a6104df565b6040516100a79190610952565b60405180910390f35b81518351146100f4576040517f08c379a00000000000000000000000000000000000000000000000000000000081526004016100eb9061096d565b60405180910390fd5b600080600090505b845181101561044157600085828151811061011357fe5b602002602001015190508073ffffffffffffffffffffffffffffffffffffffff166323b872dd333088868151811061014757fe5b60200260200101516040518463ffffffff1660e01b815260040161016d939291906108f2565b602060405180830381600087803b15801561018757600080fd5b505af115801561019b573d6000803e3d6000fd5b505050506040513d601f19601f820116820180604052508101906101bf919061072b565b508073ffffffffffffffffffffffffffffffffffffffff1663095ea7b37f000000000000000000000000000000000000000000000000000000000000000087858151811061020957fe5b60200260200101516040518363ffffffff1660e01b815260040161022e929190610929565b602060405180830381600087803b15801561024857600080fd5b505af115801561025c573d6000803e3d6000fd5b505050506040513d601f19601f82011682018060405250810190610280919061072b565b50600060405180610100016040528088858151811061029b57fe5b602002602001015173ffffffffffffffffffffffffffffffffffffffff1681526020018673ffffffffffffffffffffffffffffffffffffffff168152602001610bb862ffffff1681526020013373ffffffffffffffffffffffffffffffffffffffff16815260200142815260200187858151811061031557fe5b6020026020010151815260200160008152602001600073ffffffffffffffffffffffffffffffffffffffff16815250905060007f000000000000000000000000000000000000000000000000000000000000000073ffffffffffffffffffffffffffffffffffffffff1663414bf389836040518263ffffffff1660e01b81526004016103a1919061098d565b602060405180830381600087803b1580156103bb57600080fd5b505af11580156103cf573d6000803e3d6000fd5b505050506040513d601f19601f820116820180604052508101906103f39190610754565b905080850194507f8b0d02587d329332b1a4f52c0dffb1c9fb6a432c0a2c4e20a2c2a270a2c197558560405161042991906109a9565b60405180910390a150505080806001019150506100fc565b5050505050565b6000808290508073ffffffffffffffffffffffffffffffffffffffff166370a08231306040518263ffffffff1660e01b815260040161048791906108d7565b60206040518083038186803b15801561049f57600080fd5b505afa1580156104b3573d6000803e3d6000fd5b505050506040513d601f19601f820116820180604052508101906104d79190610754565b915050919050565b7f000000000000000000000000000000000000000000000000000000000000000081565b6000610516610511846109f5565b6109c4565b9050808382526020820190508285602086028201111561053557600080fd5b60005b85811015610565578161054b88826105db565b845260208401935060208301925050600181019050610538565b5050509392505050565b600061058261057d84610a21565b6109c4565b905080838252602082019050828560208602820111156105a157600080fd5b60005b858110156105d157816105b78882610659565b8452602084019350602083019250506001810190506105a4565b5050509392505050565b6000813590506105ea81610b11565b92915050565b600082601f83011261060157600080fd5b8135610611848260208601610503565b91505092915050565b600082601f83011261062b57600080fd5b813561063b84826020860161056f565b91505092915050565b60008151905061065381610b28565b92915050565b60008135905061066881610b3f565b92915050565b60008151905061067d81610b3f565b92915050565b60006020828403121561069557600080fd5b60006106a3848285016105db565b91505092915050565b6000806000606084860312156106c157600080fd5b600084013567ffffffffffffffff8111156106db57600080fd5b6106e7868287016105f0565b935050602084013567ffffffffffffffff81111561070457600080fd5b6107108682870161061a565b9250506040610721868287016105db565b9150509250925092565b60006020828403121561073d57600080fd5b600061074b84828501610644565b91505092915050565b60006020828403121561076657600080fd5b60006107748482850161066e565b91505092915050565b61078681610ab5565b82525050565b61079581610a5e565b82525050565b6107a481610a5e565b82525050565b6107b381610ac7565b82525050565b60006107c6601a83610a4d565b91507f4172726179206c656e6774687320646f206e6f74206d617463680000000000006000830152602082019050919050565b61010082016000820151610810600085018261078c565b506020820151610823602085018261078c565b50604082015161083660408501826108aa565b506060820151610849606085018261078c565b50608082015161085c60808501826108b9565b5060a082015161086f60a08501826108b9565b5060c082015161088260c08501826108b9565b5060e082015161089560e085018261089b565b50505050565b6108a481610a7c565b82525050565b6108b381610a9c565b82525050565b6108c281610aab565b82525050565b6108d181610aab565b82525050565b60006020820190506108ec600083018461079b565b92915050565b6000606082019050610907600083018661077d565b610914602083018561079b565b61092160408301846108c8565b949350505050565b600060408201905061093e600083018561079b565b61094b60208301846108c8565b9392505050565b600060208201905061096760008301846107aa565b92915050565b60006020820190508181036000830152610986816107b9565b9050919050565b6000610100820190506109a360008301846107f9565b92915050565b60006020820190506109be60008301846108c8565b92915050565b6000604051905081810181811067ffffffffffffffff821117156109eb576109ea610b0f565b5b8060405250919050565b600067ffffffffffffffff821115610a1057610a0f610b0f565b5b602082029050602081019050919050565b600067ffffffffffffffff821115610a3c57610a3b610b0f565b5b602082029050602081019050919050565b600082825260208201905092915050565b6000610a6982610a7c565b9050919050565b60008115159050919050565b600073ffffffffffffffffffffffffffffffffffffffff82169050919050565b600062ffffff82169050919050565b6000819050919050565b6000610ac082610aeb565b9050919050565b6000610ad282610ad9565b9050919050565b6000610ae482610a7c565b9050919050565b6000610af682610afd565b9050919050565b6000610b0882610a7c565b9050919050565bfe5b610b1a81610a5e565b8114610b2557600080fd5b50565b610b3181610a70565b8114610b3c57600080fd5b50565b610b4881610aab565b8114610b5357600080fd5b5056fea2646970667358221220e7bcc5b567866a0f715f3dd4082b167e92fe93a5ef0b172631518c012c13505d64736f6c63430007060033",
  "linkReferences": {},
  "deployedLinkReferences": {}
}